{
  "_format": "hh-sol-artifact-1",
  "contractName": "SingleSwapToken",
  "sourceName": "contracts/SwapToken.sol",
  "abi": [
    {
      "inputs": [],
      "name": "DAI",
      "outputs": [
        {
          "internalType": "address",
          "name": "",
          "type": "address"
        }
      ],
      "stateMutability": "view",
      "type": "function"
    },
    {
      "inputs": [],
      "name": "USDC",
      "outputs": [
        {
          "internalType": "address",
          "name": "",
          "type": "address"
        }
      ],
      "stateMutability": "view",
      "type": "function"
    },
    {
      "inputs": [],
      "name": "WETH9",
      "outputs": [
        {
          "internalType": "address",
          "name": "",
          "type": "address"
        }
      ],
      "stateMutability": "view",
      "type": "function"
    },
    {
      "inputs": [
        {
          "internalType": "uint256",
          "name": "amountIn",
          "type": "uint256"
        }
      ],
      "name": "swapExactInputSingle",
      "outputs": [
        {
          "internalType": "uint256",
          "name": "amountOut",
          "type": "uint256"
        }
      ],
      "stateMutability": "nonpayable",
      "type": "function"
    },
    {
      "inputs": [
        {
          "internalType": "uint256",
          "name": "amountOut",
          "type": "uint256"
        },
        {
          "internalType": "uint256",
          "name": "amountInMaximum",
          "type": "uint256"
        }
      ],
      "name": "swapExactOutputSingle",
      "outputs": [
        {
          "internalType": "uint256",
          "name": "amountIn",
          "type": "uint256"
        }
      ],
      "stateMutability": "nonpayable",
      "type": "function"
    },
    {
      "inputs": [],
      "name": "swapRouter",
      "outputs": [
        {
          "internalType": "contract ISwapRouter",
          "name": "",
          "type": "address"
        }
      ],
      "stateMutability": "view",
      "type": "function"
    }
  ],
  "bytecode": "0x608060405273c02aaa39b223fe8d0a0e5c4f27ead9083c756cc26000806101000a81548173ffffffffffffffffffffffffffffffffffffffff021916908373ffffffffffffffffffffffffffffffffffffffff16021790555073a0b86991c6218b36c1d19d4a2e9eb0ce3606eb48600160006101000a81548173ffffffffffffffffffffffffffffffffffffffff021916908373ffffffffffffffffffffffffffffffffffffffff1602179055503480156100b957600080fd5b506110d6806100c96000396000f3fe608060405234801561001057600080fd5b50600436106100625760003560e01c80634aa4a4fc1461006757806373bd43ad1461008557806389a30271146100b5578063c31c9c07146100d3578063c4b69a18146100f1578063e0bab4c414610121575b600080fd5b61006f61013f565b60405161007c9190610a2b565b60405180910390f35b61009f600480360381019061009a9190610a81565b610163565b6040516100ac9190610abd565b60405180910390f35b6100bd61033b565b6040516100ca9190610a2b565b60405180910390f35b6100db610361565b6040516100e89190610b37565b60405180910390f35b61010b60048036038101906101069190610b52565b610379565b6040516101189190610abd565b60405180910390f35b6101296105d0565b6040516101369190610a2b565b60405180910390f35b60008054906101000a900473ffffffffffffffffffffffffffffffffffffffff1681565b600061019160008054906101000a900473ffffffffffffffffffffffffffffffffffffffff163330856105e8565b6101d060008054906101000a900473ffffffffffffffffffffffffffffffffffffffff1673e592427a0aece92de3edee1f18e0157c0586156484610740565b600060405180610100016040528060008054906101000a900473ffffffffffffffffffffffffffffffffffffffff1673ffffffffffffffffffffffffffffffffffffffff168152602001736b175474e89094c44da98b954eedeac495271d0f73ffffffffffffffffffffffffffffffffffffffff168152602001610bb862ffffff1681526020013373ffffffffffffffffffffffffffffffffffffffff16815260200142815260200184815260200160008152602001600073ffffffffffffffffffffffffffffffffffffffff16815250905073e592427a0aece92de3edee1f18e0157c0586156473ffffffffffffffffffffffffffffffffffffffff1663414bf389826040518263ffffffff1660e01b81526004016102f09190610c7f565b6020604051808303816000875af115801561030f573d6000803e3d6000fd5b505050506040513d601f19601f820116820180604052508101906103339190610cb0565b915050919050565b600160009054906101000a900473ffffffffffffffffffffffffffffffffffffffff1681565b73e592427a0aece92de3edee1f18e0157c0586156481565b60006103a760008054906101000a900473ffffffffffffffffffffffffffffffffffffffff163330856105e8565b6103e660008054906101000a900473ffffffffffffffffffffffffffffffffffffffff1673e592427a0aece92de3edee1f18e0157c0586156484610740565b600060405180610100016040528060008054906101000a900473ffffffffffffffffffffffffffffffffffffffff1673ffffffffffffffffffffffffffffffffffffffff168152602001736b175474e89094c44da98b954eedeac495271d0f73ffffffffffffffffffffffffffffffffffffffff168152602001610bb862ffffff1681526020013373ffffffffffffffffffffffffffffffffffffffff168152602001428152602001858152602001848152602001600073ffffffffffffffffffffffffffffffffffffffff16815250905073e592427a0aece92de3edee1f18e0157c0586156473ffffffffffffffffffffffffffffffffffffffff1663db3e2198826040518263ffffffff1660e01b81526004016105059190610d7f565b6020604051808303816000875af1158015610524573d6000803e3d6000fd5b505050506040513d601f19601f820116820180604052508101906105489190610cb0565b9150828210156105c95761059260008054906101000a900473ffffffffffffffffffffffffffffffffffffffff1673e592427a0aece92de3edee1f18e0157c058615646000610740565b6105c860008054906101000a900473ffffffffffffffffffffffffffffffffffffffff163384866105c39190610dca565b610895565b5b5092915050565b736b175474e89094c44da98b954eedeac495271d0f81565b6000808573ffffffffffffffffffffffffffffffffffffffff166323b872dd60e01b86868660405160240161061f93929190610dfe565b604051602081830303815290604052907bffffffffffffffffffffffffffffffffffffffffffffffffffffffff19166020820180517bffffffffffffffffffffffffffffffffffffffffffffffffffffffff83818316178352505050506040516106899190610ea6565b6000604051808303816000865af19150503d80600081146106c6576040519150601f19603f3d011682016040523d82523d6000602084013e6106cb565b606091505b50915091508180156106f957506000815114806106f85750808060200190518101906106f79190610ef5565b5b5b610738576040517f08c379a000000000000000000000000000000000000000000000000000000000815260040161072f90610f7f565b60405180910390fd5b505050505050565b6000808473ffffffffffffffffffffffffffffffffffffffff1663095ea7b360e01b8585604051602401610775929190610f9f565b604051602081830303815290604052907bffffffffffffffffffffffffffffffffffffffffffffffffffffffff19166020820180517bffffffffffffffffffffffffffffffffffffffffffffffffffffffff83818316178352505050506040516107df9190610ea6565b6000604051808303816000865af19150503d806000811461081c576040519150601f19603f3d011682016040523d82523d6000602084013e610821565b606091505b509150915081801561084f575060008151148061084e57508080602001905181019061084d9190610ef5565b5b5b61088e576040517f08c379a000000000000000000000000000000000000000000000000000000000815260040161088590611014565b60405180910390fd5b5050505050565b6000808473ffffffffffffffffffffffffffffffffffffffff1663a9059cbb60e01b85856040516024016108ca929190610f9f565b604051602081830303815290604052907bffffffffffffffffffffffffffffffffffffffffffffffffffffffff19166020820180517bffffffffffffffffffffffffffffffffffffffffffffffffffffffff83818316178352505050506040516109349190610ea6565b6000604051808303816000865af19150503d8060008114610971576040519150601f19603f3d011682016040523d82523d6000602084013e610976565b606091505b50915091508180156109a457506000815114806109a35750808060200190518101906109a29190610ef5565b5b5b6109e3576040517f08c379a00000000000000000000000000000000000000000000000000000000081526004016109da90611080565b60405180910390fd5b5050505050565b600073ffffffffffffffffffffffffffffffffffffffff82169050919050565b6000610a15826109ea565b9050919050565b610a2581610a0a565b82525050565b6000602082019050610a406000830184610a1c565b92915050565b600080fd5b6000819050919050565b610a5e81610a4b565b8114610a6957600080fd5b50565b600081359050610a7b81610a55565b92915050565b600060208284031215610a9757610a96610a46565b5b6000610aa584828501610a6c565b91505092915050565b610ab781610a4b565b82525050565b6000602082019050610ad26000830184610aae565b92915050565b6000819050919050565b6000610afd610af8610af3846109ea565b610ad8565b6109ea565b9050919050565b6000610b0f82610ae2565b9050919050565b6000610b2182610b04565b9050919050565b610b3181610b16565b82525050565b6000602082019050610b4c6000830184610b28565b92915050565b60008060408385031215610b6957610b68610a46565b5b6000610b7785828601610a6c565b9250506020610b8885828601610a6c565b9150509250929050565b610b9b81610a0a565b82525050565b600062ffffff82169050919050565b610bb981610ba1565b82525050565b610bc881610a4b565b82525050565b610bd7816109ea565b82525050565b61010082016000820151610bf46000850182610b92565b506020820151610c076020850182610b92565b506040820151610c1a6040850182610bb0565b506060820151610c2d6060850182610b92565b506080820151610c406080850182610bbf565b5060a0820151610c5360a0850182610bbf565b5060c0820151610c6660c0850182610bbf565b5060e0820151610c7960e0850182610bce565b50505050565b600061010082019050610c956000830184610bdd565b92915050565b600081519050610caa81610a55565b92915050565b600060208284031215610cc657610cc5610a46565b5b6000610cd484828501610c9b565b91505092915050565b61010082016000820151610cf46000850182610b92565b506020820151610d076020850182610b92565b506040820151610d1a6040850182610bb0565b506060820151610d2d6060850182610b92565b506080820151610d406080850182610bbf565b5060a0820151610d5360a0850182610bbf565b5060c0820151610d6660c0850182610bbf565b5060e0820151610d7960e0850182610bce565b50505050565b600061010082019050610d956000830184610cdd565b92915050565b7f4e487b7100000000000000000000000000000000000000000000000000000000600052601160045260246000fd5b6000610dd582610a4b565b9150610de083610a4b565b9250828203905081811115610df857610df7610d9b565b5b92915050565b6000606082019050610e136000830186610a1c565b610e206020830185610a1c565b610e2d6040830184610aae565b949350505050565b600081519050919050565b600081905092915050565b60005b83811015610e69578082015181840152602081019050610e4e565b60008484015250505050565b6000610e8082610e35565b610e8a8185610e40565b9350610e9a818560208601610e4b565b80840191505092915050565b6000610eb28284610e75565b915081905092915050565b60008115159050919050565b610ed281610ebd565b8114610edd57600080fd5b50565b600081519050610eef81610ec9565b92915050565b600060208284031215610f0b57610f0a610a46565b5b6000610f1984828501610ee0565b91505092915050565b600082825260208201905092915050565b7f5354460000000000000000000000000000000000000000000000000000000000600082015250565b6000610f69600383610f22565b9150610f7482610f33565b602082019050919050565b60006020820190508181036000830152610f9881610f5c565b9050919050565b6000604082019050610fb46000830185610a1c565b610fc16020830184610aae565b9392505050565b7f5341000000000000000000000000000000000000000000000000000000000000600082015250565b6000610ffe600283610f22565b915061100982610fc8565b602082019050919050565b6000602082019050818103600083015261102d81610ff1565b9050919050565b7f5354000000000000000000000000000000000000000000000000000000000000600082015250565b600061106a600283610f22565b915061107582611034565b602082019050919050565b600060208201905081810360008301526110998161105d565b905091905056fea2646970667358221220ddd39059ea6d00e270d30224445822062ff770a1cb1138cd0f4df55054cd8d0f64736f6c63430008110033",
  "linkReferences": {},
  "deployedLinkReferences": {}
}