{
  "_format": "hh-sol-artifact-1",
  "contractName": "SwapMultiHop",
  "sourceName": "contracts/SwapMultiHop.sol",
  "abi": [
    {
      "inputs": [],
      "name": "DAI",
      "outputs": [
        {
          "internalType": "address",
          "name": "",
          "type": "address"
        }
      ],
      "stateMutability": "view",
      "type": "function"
    },
    {
      "inputs": [],
      "name": "USDC",
      "outputs": [
        {
          "internalType": "address",
          "name": "",
          "type": "address"
        }
      ],
      "stateMutability": "view",
      "type": "function"
    },
    {
      "inputs": [],
      "name": "WETH9",
      "outputs": [
        {
          "internalType": "address",
          "name": "",
          "type": "address"
        }
      ],
      "stateMutability": "view",
      "type": "function"
    },
    {
      "inputs": [
        {
          "internalType": "uint256",
          "name": "amountIn",
          "type": "uint256"
        }
      ],
      "name": "swapExactInputMultihop",
      "outputs": [
        {
          "internalType": "uint256",
          "name": "amountOut",
          "type": "uint256"
        }
      ],
      "stateMutability": "nonpayable",
      "type": "function"
    },
    {
      "inputs": [
        {
          "internalType": "uint256",
          "name": "amountOut",
          "type": "uint256"
        },
        {
          "internalType": "uint256",
          "name": "amountInMaximum",
          "type": "uint256"
        }
      ],
      "name": "swapExactOutputMultihop",
      "outputs": [
        {
          "internalType": "uint256",
          "name": "amountIn",
          "type": "uint256"
        }
      ],
      "stateMutability": "nonpayable",
      "type": "function"
    },
    {
      "inputs": [],
      "name": "swapRouter",
      "outputs": [
        {
          "internalType": "contract ISwapRouter",
          "name": "",
          "type": "address"
        }
      ],
      "stateMutability": "view",
      "type": "function"
    }
  ],
  "bytecode": "0x608060405273c02aaa39b223fe8d0a0e5c4f27ead9083c756cc26000806101000a81548173ffffffffffffffffffffffffffffffffffffffff021916908373ffffffffffffffffffffffffffffffffffffffff16021790555073a0b86991c6218b36c1d19d4a2e9eb0ce3606eb48600160006101000a81548173ffffffffffffffffffffffffffffffffffffffff021916908373ffffffffffffffffffffffffffffffffffffffff1602179055503480156100b957600080fd5b50610fc2806100c96000396000f3fe608060405234801561001057600080fd5b50600436106100625760003560e01c80633b85cf6a146100675780634aa4a4fc1461009757806389a30271146100b5578063c31c9c07146100d3578063e0bab4c4146100f1578063edd835571461010f575b600080fd5b610081600480360381019061007c91906108af565b61013f565b60405161008e91906108fe565b60405180910390f35b61009f610386565b6040516100ac919061095a565b60405180910390f35b6100bd6103aa565b6040516100ca919061095a565b60405180910390f35b6100db6103d0565b6040516100e891906109d4565b60405180910390f35b6100f96103e8565b604051610106919061095a565b60405180910390f35b610129600480360381019061012491906109ef565b610400565b60405161013691906108fe565b60405180910390f35b600061016d60008054906101000a900473ffffffffffffffffffffffffffffffffffffffff163330856105c7565b6101ac60008054906101000a900473ffffffffffffffffffffffffffffffffffffffff1673e592427a0aece92de3edee1f18e0157c058615648461071f565b60006040518060a00160405280736b175474e89094c44da98b954eedeac495271d0f6064600160009054906101000a900473ffffffffffffffffffffffffffffffffffffffff16610bb860008054906101000a900473ffffffffffffffffffffffffffffffffffffffff1660405160200161022b959493929190610aa9565b60405160208183030381529060405281526020013373ffffffffffffffffffffffffffffffffffffffff16815260200142815260200185815260200184815250905073e592427a0aece92de3edee1f18e0157c0586156473ffffffffffffffffffffffffffffffffffffffff1663f28c0498826040518263ffffffff1660e01b81526004016102ba9190610c2c565b6020604051808303816000875af11580156102d9573d6000803e3d6000fd5b505050506040513d601f19601f820116820180604052508101906102fd9190610c63565b91508282101561037f5761034760008054906101000a900473ffffffffffffffffffffffffffffffffffffffff1673e592427a0aece92de3edee1f18e0157c05861564600061071f565b61037e60008054906101000a900473ffffffffffffffffffffffffffffffffffffffff16303385876103799190610cbf565b6105c7565b5b5092915050565b60008054906101000a900473ffffffffffffffffffffffffffffffffffffffff1681565b600160009054906101000a900473ffffffffffffffffffffffffffffffffffffffff1681565b73e592427a0aece92de3edee1f18e0157c0586156481565b736b175474e89094c44da98b954eedeac495271d0f81565b600061042e60008054906101000a900473ffffffffffffffffffffffffffffffffffffffff163330856105c7565b61046d60008054906101000a900473ffffffffffffffffffffffffffffffffffffffff1673e592427a0aece92de3edee1f18e0157c058615648461071f565b60006040518060a0016040528060008054906101000a900473ffffffffffffffffffffffffffffffffffffffff16610bb8600160009054906101000a900473ffffffffffffffffffffffffffffffffffffffff166064736b175474e89094c44da98b954eedeac495271d0f6040516020016104ec959493929190610aa9565b60405160208183030381529060405281526020013373ffffffffffffffffffffffffffffffffffffffff1681526020014281526020018481526020016000815250905073e592427a0aece92de3edee1f18e0157c0586156473ffffffffffffffffffffffffffffffffffffffff1663c04b8d59826040518263ffffffff1660e01b815260040161057c9190610d69565b6020604051808303816000875af115801561059b573d6000803e3d6000fd5b505050506040513d601f19601f820116820180604052508101906105bf9190610c63565b915050919050565b6000808573ffffffffffffffffffffffffffffffffffffffff166323b872dd60e01b8686866040516024016105fe93929190610d8b565b604051602081830303815290604052907bffffffffffffffffffffffffffffffffffffffffffffffffffffffff19166020820180517bffffffffffffffffffffffffffffffffffffffffffffffffffffffff83818316178352505050506040516106689190610dfe565b6000604051808303816000865af19150503d80600081146106a5576040519150601f19603f3d011682016040523d82523d6000602084013e6106aa565b606091505b50915091508180156106d857506000815114806106d75750808060200190518101906106d69190610e4d565b5b5b610717576040517f08c379a000000000000000000000000000000000000000000000000000000000815260040161070e90610ed7565b60405180910390fd5b505050505050565b6000808473ffffffffffffffffffffffffffffffffffffffff1663095ea7b360e01b8585604051602401610754929190610ef7565b604051602081830303815290604052907bffffffffffffffffffffffffffffffffffffffffffffffffffffffff19166020820180517bffffffffffffffffffffffffffffffffffffffffffffffffffffffff83818316178352505050506040516107be9190610dfe565b6000604051808303816000865af19150503d80600081146107fb576040519150601f19603f3d011682016040523d82523d6000602084013e610800565b606091505b509150915081801561082e575060008151148061082d57508080602001905181019061082c9190610e4d565b5b5b61086d576040517f08c379a000000000000000000000000000000000000000000000000000000000815260040161086490610f6c565b60405180910390fd5b5050505050565b600080fd5b6000819050919050565b61088c81610879565b811461089757600080fd5b50565b6000813590506108a981610883565b92915050565b600080604083850312156108c6576108c5610874565b5b60006108d48582860161089a565b92505060206108e58582860161089a565b9150509250929050565b6108f881610879565b82525050565b600060208201905061091360008301846108ef565b92915050565b600073ffffffffffffffffffffffffffffffffffffffff82169050919050565b600061094482610919565b9050919050565b61095481610939565b82525050565b600060208201905061096f600083018461094b565b92915050565b6000819050919050565b600061099a61099561099084610919565b610975565b610919565b9050919050565b60006109ac8261097f565b9050919050565b60006109be826109a1565b9050919050565b6109ce816109b3565b82525050565b60006020820190506109e960008301846109c5565b92915050565b600060208284031215610a0557610a04610874565b5b6000610a138482850161089a565b91505092915050565b60008160601b9050919050565b6000610a3482610a1c565b9050919050565b6000610a4682610a29565b9050919050565b610a5e610a5982610939565b610a3b565b82525050565b600062ffffff82169050919050565b60008160e81b9050919050565b6000610a8b82610a73565b9050919050565b610aa3610a9e82610a64565b610a80565b82525050565b6000610ab58288610a4d565b601482019150610ac58287610a92565b600382019150610ad58286610a4d565b601482019150610ae58285610a92565b600382019150610af58284610a4d565b6014820191508190509695505050505050565b600081519050919050565b600082825260208201905092915050565b60005b83811015610b42578082015181840152602081019050610b27565b60008484015250505050565b6000601f19601f8301169050919050565b6000610b6a82610b08565b610b748185610b13565b9350610b84818560208601610b24565b610b8d81610b4e565b840191505092915050565b610ba181610939565b82525050565b610bb081610879565b82525050565b600060a0830160008301518482036000860152610bd38282610b5f565b9150506020830151610be86020860182610b98565b506040830151610bfb6040860182610ba7565b506060830151610c0e6060860182610ba7565b506080830151610c216080860182610ba7565b508091505092915050565b60006020820190508181036000830152610c468184610bb6565b905092915050565b600081519050610c5d81610883565b92915050565b600060208284031215610c7957610c78610874565b5b6000610c8784828501610c4e565b91505092915050565b7f4e487b7100000000000000000000000000000000000000000000000000000000600052601160045260246000fd5b6000610cca82610879565b9150610cd583610879565b9250828203905081811115610ced57610cec610c90565b5b92915050565b600060a0830160008301518482036000860152610d108282610b5f565b9150506020830151610d256020860182610b98565b506040830151610d386040860182610ba7565b506060830151610d4b6060860182610ba7565b506080830151610d5e6080860182610ba7565b508091505092915050565b60006020820190508181036000830152610d838184610cf3565b905092915050565b6000606082019050610da0600083018661094b565b610dad602083018561094b565b610dba60408301846108ef565b949350505050565b600081905092915050565b6000610dd882610b08565b610de28185610dc2565b9350610df2818560208601610b24565b80840191505092915050565b6000610e0a8284610dcd565b915081905092915050565b60008115159050919050565b610e2a81610e15565b8114610e3557600080fd5b50565b600081519050610e4781610e21565b92915050565b600060208284031215610e6357610e62610874565b5b6000610e7184828501610e38565b91505092915050565b600082825260208201905092915050565b7f5354460000000000000000000000000000000000000000000000000000000000600082015250565b6000610ec1600383610e7a565b9150610ecc82610e8b565b602082019050919050565b60006020820190508181036000830152610ef081610eb4565b9050919050565b6000604082019050610f0c600083018561094b565b610f1960208301846108ef565b9392505050565b7f5341000000000000000000000000000000000000000000000000000000000000600082015250565b6000610f56600283610e7a565b9150610f6182610f20565b602082019050919050565b60006020820190508181036000830152610f8581610f49565b905091905056fea26469706673582212204453c69a471180e8117d1bd3b479f8529a4c451da9235fdf87b6cd873e13f0a464736f6c63430008110033",
  "linkReferences": {},
  "deployedLinkReferences": {}
}